:020000040800F2
:1000000000500020710A0008C10A0008C10A000857
:10001000C10A0008C10A0008C10A00080000000067
:10002000000000000000000000000000C10A0008FD
:10003000C10A000800000000C10A0008C10A000847
:10004000C10A0008C10A0008C10A0008C10A000864
:10005000C10A0008C10A0008C10A0008C10A000854
:10006000C10A0008C10A0008C10A0008C10A000844
:10007000C10A0008C10A0008C10A0008C10A000834
:10008000C10A0008C10A0008C10A0008C10A000824
:10009000C10A0008C10A0008C10A0008C10A000814
:1000A000C10A0008C10A0008C10A0008C10A000804
:1000B000C10A0008C10A0008C10A0008C10A0008F4
:1000C000C10A0008C10A0008C10A0008C10A0008E4
:1000D000C10A0008C10A0008C10A0008C10A0008D4
:1000E000C10A0008C10A000800000000C10A000897
:1000F000C10A0008C10A0008C10A0008C10A0008B4
:10010000C10A0008C10A0008C10A0008C10A0008A3
:10011000C10A0008C10A0008C10A0008C10A000893
:10012000C10A0008C10A0008C10A0008C10A000883
:1001300010B5054C237833B9044B13B10448AFF321
:1001400000800123237010BD5C000020000000002F
:10015000E413000808B5034B1BB103490348AFF390
:10016000008008BD0000000060000020E4130008CB
:1001700080B584B000AFB9607A603B600346FB7322
:10018000624B9A69FB7B614913438B61BB68072B08
:1001900058D8FB7B102B38D0102B4FDC042B02D00F
:1001A000082B19D04AE05A4B1B68BA6892000F21FD
:1001B00001FA02F2D2431146554A0B401360544BE8
:1001C0001A6879683B681943BB689B0001FA03F31E
:1001D0004F4913430B6094E04E4B1B68BA68920082
:1001E0000F2101FA02F2D24311464A4A0B40136032
:1001F000484B1A6879683B681943BB689B0001FA51
:1002000003F3444913430B607BE0434B1B68BA681C
:1002100092000F2101FA02F2D24311463E4A0B40EE
:1002200013603D4B1A6879683B681943BB689B00B3
:1002300001FA03F3384913430B6062E0374800F0DA
:1002400045FD5EE0FB7B102B3CD0102B55DC042BD6
:1002500002D0082B1BD050E02D4B5B68BA68083ADF
:1002600092000F2101FA02F2D2431146284A0B40B4
:100270005360274B5A6879683B681943BB68083B51
:100280009B0001FA03F3224913434B6039E0214BF1
:100290005B68BA68083A92000F2101FA02F2D24371
:1002A00011461C4A0B4053601A4B5A6879683B68E8
:1002B0001943BB68083B9B0001FA03F3154913433C
:1002C0004B601EE0144B5B68BA68083A92000F213D
:1002D00001FA02F2D24311460F4A0B4053600E4B13
:1002E0005A6879683B681943BB68083B9B0001FA70
:1002F00003F3094913434B6003E0084800F0E6FCB0
:1003000000BF00BF1037BD4680BD00BF00100240D7
:1003100000080140000C014000100140FC130008DF
:1003200080B582B000AF03463960FB711346BB71E4
:10033000FB79102B32D0102B46DC042B02D0082B7B
:1003400016D041E0244BDB6801213A6801FA02F241
:10035000D2431146204A0B40D3601F4BDB68B9796A
:100360003A6801FA02F211461B4A0B43D3602FE0B0
:100370001A4BDB6801213A6801FA02F2D2431146B6
:10038000164A0B40D360154BDB68B9793A6801FA1D
:1003900002F21146114A0B43D36019E0104BDB689F
:1003A00001213A6801FA02F2D24311460C4A0B408D
:1003B000D3600B4BDB68B9793A6801FA02F2114657
:1003C000074A0B43D36003E0064800F07FFC00BF00
:1003D00000BF0837BD4680BD00080140000C014049
:1003E000001001402014000880B582B000AF00F07A
:1003F00027F800F0A2F900F0CDF900F0BDF900F007
:10040000E1FA00F018F900F02FF900237B6007E013
:100410000A4A7B6813440F221A707B6801337B60A1
:100420007B68B3F5906FF3DB044800F046F900F009
:10043000FCF84FF4FA7000F003FBF8E778000020B6
:1004400080B400AF324B1B68314A43F480331360F1
:1004500000BF2F4B1B6803F40033002BF9D02C4B4B
:10046000DB692B4A43F08053D3612A4B1B68294A2E
:1004700043F01003136000BF264B1B6803F02003FA
:10048000002BF9D0234B1B68224A43F00103136071
:100490001F4B1F4A5B6853601D4B5B681C4A43F44B
:1004A000806353601A4B5B68194A43F400535360EE
:1004B000174B5B68164A43F400235360144B5B6888
:1004C000134A43F480335360114B114A5B68536005
:1004D0000F4B1B680E4A43F08073136000BF0C4B38
:1004E0001B6803F00073002BF9D0094B5B68084AC6
:1004F00043F00203536000BF054B5B6803F0080341
:10050000002BF9D000BF00BFBD4680BC704700BFC4
:10051000001002400020024080B400AF064B1B7860
:1005200083F04003DAB2044B1A70034B1B78184671
:10053000BD4680BC704700BFF804002080B582B083
:1005400000AF0346FB71FB1D0121184600F068F95E
:1005500000BF0837BD4680BD80B582B000AF0346FE
:10056000FB71FFF7D9FF03461A46FB791343DBB251
:10057000FB71FB1D0121184600F052F900BF08373E
:10058000BD4680BD80B483B000AF0346FB71FB79EC
:10059000DB09DBB25AB2FB795B115BB203F00203F9
:1005A0005BB213435AB2FB79DB105BB203F0040376
:1005B0005BB213435AB2FB795B105BB203F00803E2
:1005C0005BB213435AB2FB79DB015BB213435AB2FD
:1005D000FB795B015BB203F040035BB213435AB299
:1005E000FB79DB005BB203F020035BB213435AB22A
:1005F000FB795B005BB203F010035BB213435BB2A9
:10060000FB71FB7918460C37BD4680BC704780B53E
:1006100000AF00F032F80020FFF79EFF0020FFF748
:100620008DFF00F033F800BF80BD80B500AFFFF74D
:10063000EEFF00BF80BD80B500AF00230122002186
:100640000420FFF795FD0023012201210420FFF77C
:100650008FFD002201210420FFF762FE00F004F864
:1006600000F01DF800BF80BD80B500AF0122002161
:100670000420FFF755FE00BF80BD80B500AF01220A
:1006800001210420FFF74CFE00BF80BD80B500AF04
:10069000002201210420FFF743FE00BF80BD80B58A
:1006A00000AFFFF7EAFF2020FFF756FF0020FFF71B
:1006B00045FFFFF7EBFF00BF80BD80B584B000AF02
:1006C0007860FFF7DAFF8020FFF746FF0023FB7317
:1006D00027E0FB7B0133DBB21846FFF753FF0346ED
:1006E0001846FFF72BFF0023BB6011E0FA7B13468F
:1006F0005B0013449B001A46BB6813441A467B6890
:1007000013441B781846FFF719FFBB680133BB6021
:10071000BB680B2BEADD0020FFF710FFFB7B0133EA
:10072000FB73FB7B5F2BD4D90020FFF707FFFFF79C
:10073000ADFF00BF1037BD4680BD80B500AF0823B8
:10074000012207210420FFF713FD082301220521C0
:100750000420FFF70DFD00BF80BD000080B400AF96
:10076000044B1B68034A23F08003136000BFBD469F
:1007700080BC70470030014080B400AF044B1B6860
:10078000034A43F04003136000BFBD4680BC70477E
:100790000030014080B500AF1F4B9B691E4A43F4F7
:1007A000805393611D4B1B681C4A23F02003136088
:1007B0001A4B1B68194A43F018031360174B1B6848
:1007C000164A23F002031360144B1B68134A23F0EC
:1007D00001031360114B1B68104A23F4006313607C
:1007E000FFF7BCFF0D4B1B680C4A43F0040313607A
:1007F0000A4B1B68094A43F400731360074B1B68DC
:10080000064A43F480731360044B00225A60034B82
:100810000022DA6000BF80BD0010024000300140BD
:1008200080B485B000AF78600B46FB700023FB609E
:100830000FE000BF124B9B6803F00203022BF9D1BB
:10084000FB687A6813441A780D4BDA60FB68013351
:10085000FB60FB78FA689A42EBDB00BF084B9B68B1
:1008600003F08003802BF9D0054BDB68FB72044B4F
:100870009B68FB7200BF1437BD4680BC704700BF49
:100880000030014080B586B000AFF860B9607A6092
:1008900000237B610AE0AFF300800146BB685A1C6D
:1008A000BA60CAB21A707B6901337B617A697B686E
:1008B0009A42F0DB7B6818461837BD4680BD80B58C
:1008C00086B000AFF860B9607A6000237B6109E010
:1008D000BB685A1CBA601B781846AFF300807B696E
:1008E00001337B617A697B689A42F1DB7B68184649
:1008F0001837BD4680BD80B483B000AF78604FF03C
:10090000FF3318460C37BD4680BC704780B483B0B7
:1009100000AF786039603B684FF400525A600023A2
:1009200018460C37BD4680BC704780B483B000AF1A
:100930007860012318460C37BD4680BC704780B4F0
:1009400085B000AFF860B9607A60002318461437AC
:10095000BD4680BC7047000080B586B000AF7860AF
:10096000144A154BD31A7B617B693B61134B1B689F
:10097000002B02D1114B124A1A60104B1A687B6887
:1009800013443A699A4207D200F0CEFA03460C2289
:100990001A604FF0FF3309E0084B1B68FB60074B00
:1009A0001A687B681344054A1360FB6818461837B9
:1009B000BD4680BD0050002000040000FC04002063
:1009C0005006002080B400AF114BDB69104A43F0A1
:1009D0000103D3614FF0804307229A624FF08043B6
:1009E0004FF6FE72DA624FF080431B684FF0804290
:1009F00043F00103136000BF4FF080431B6903F015
:100A00000103002BF8D000BF00BFBD4680BC70477B
:100A10000010024080B483B000AF0346FB804FF06B
:100A2000804300225A6200BF4FF080435A6AFB881D
:100A30009A42F9D300BF00BF0C37BD4680BC704757
:100A400080B584B000AF0346FB800023FB8106E045
:100A50004FF47A70FFF7DEFFFB890133FB81FA89DF
:100A6000FB889A42F4D300BF00BF1037BD4680BD5B
:100A70000D488546AFF300800C480D490D4A002310
:100A800002E0D458C4500433C4188C42F9D30A4A43
:100A90000A4C002301E013600432A242FBD300F0B1
:100AA00049FAFFF7A1FCFEE70050002000000020FB
:100AB0005C0000206C1400085C0000204C06002044
:100AC000FEE70000002310B50446C0E90033C0E98A
:100AD0000433836081814366C281836119460822A1
:100AE0005C3000F0D3F9054B24626362044BA362CF
:100AF000044BE362044B236310BD00BFDD0C000810
:100B0000FF0C0008370D00085B0D0008024A03497E
:100B1000034800F069B800BF000000206D12000813
:100B20000C00002041680C4B10B59942044601D0DE
:100B300000F09CFBA168094B994202D0204600F0CE
:100B400095FBE168064B994204D02046BDE8104071
:100B500000F08CBB10BD00BF000500206805002020
:100B6000D005002010B50B4B0B4C0C4A20461A60E8
:100B700004210022FFF7A6FF04F1680001220921E9
:100B8000FFF7A0FF04F1D0000222BDE810401221BF
:100B9000FFF798BF38060020000500200D0B000865
:100BA000014800F0EBB900BF41060020014800F009
:100BB000E6B900BF4106002010B50446FFF7F0FF7C
:100BC000236A1BB1BDE81040FFF7F0BF044B23625E
:100BD000044B1B68002BF5D1FFF7C4FFF2E700BF01
:100BE000250B0008380600202DE9F8430746884603
:100BF00014460026D4E90195B9F1010905D5246808
:100C0000002CF7D13046BDE8F883AB89012B07D91A
:100C1000B5F90E30013303D029463846C0470643A4
:100C20006835E9E7036A70B505460E4684680BB976
:100C3000FFF7C2FF636EDB0705D4A389980502D4D2
:100C4000A06D00F09BF9A389190713D523698BB117
:100C5000013EA36816F8011F013BA360E9B9002B10
:100C60002EDA22460A21284600F07BF8013007D010
:100C70000A2507E02146284600F0B0F80028E7D012
:100C80004FF0FF35636EDA0705D4A3899B0502D4C4
:100C9000A06D00F074F9284670BD002B04DAA2693B
:100CA0009A4206DC0A2904D023685A1C2260197073
:100CB000CFE72246284600F054F80130C9D1DFE7DB
:100CC0000A2523685A1C22601D70DBE7024B01468F
:100CD0001868FFF7A7BF00BF5800002010B50C46EA
:100CE000B1F90E1000F0FCF80028ABBF636DA389CA
:100CF0001B1823F48053ACBF6365A38110BD2DE99D
:100D0000F0411F468B890546DB050C46164605D586
:100D100002230022B1F90E1000F0D0F8A389324668
:100D200023F48053A38128463B46B4F90E10BDE856
:100D3000F04100F0E7B810B50C46B1F90E1000F024
:100D4000BDF8431CA38915BF606523F4805343F4A9
:100D50008053A38118BFA38110BDB1F90E1000F01C
:100D60009DB8F8B50E461446054618B1036A0BB98E
:100D7000FFF722FFA369A360A3891A0725D523697A
:100D80001BB323682269F6B2981A63693746834217
:100D900004DC2146284600F069FAE0B9A368013B6B
:100DA000A36023685A1C22601E706269431C9A4229
:100DB00004D0A389DB0706D50A2E04D12146284694
:100DC00000F054FA38B93846F8BD2146284600F0FC
:100DD00005F80028D5D04FF0FF37F4E738B52A4B97
:100DE000054618680C4618B1036A0BB9FFF7E4FE14
:100DF000A389B4F90C20180722D4D90607D40923F3
:100E00002B6042F040034FF0FF30A38134E05807DD
:100E100012D5616B41B104F14403994202D02846D6
:100E200000F0AEF800236363A38923F02403A381B9
:100E30000023636023692360A38943F00803A3812F
:100E400023694BB9A38903F42073B3F5007F03D062
:100E50002146284600F057FAA089B4F90C2010F07A
:100E600001030AD00023A36063695B42A361236985
:100E700043B910F08000C4D138BD810758BF636901
:100E8000A360F4E70020F7E758000020034602447F
:100E9000934200D1704703F8011BF9E738B50023EE
:100EA000054D044608462B60FFF725FD431C02D183
:100EB0002B6803B1236038BD3C06002038B50446DA
:100EC000084611460022054D2A601A46FFF737FDF5
:100ED000431C02D12B6803B1236038BD3C060020BF
:100EE00038B50446084611460022054D2A601A46C8
:100EF000FFF7C8FC431C02D12B6803B1236038BD47
:100F00003C06002038B50446084611460022054D2F
:100F10002A601A46FFF7D3FC431C02D12B6803B1A9
:100F2000236038BD3C060020014B1868704700BFA5
:100F30005800002070B500260C4D0D4C641BA41009
:100F4000A64209D100F04EFA00260A4D0A4C641B55
:100F5000A410A64205D170BD55F8043B9847013650
:100F6000EEE755F8043B98470136F2E764140008B1
:100F7000641400086414000868140008704770477F
:100F800038B50546002940D051F8043C0C1F002B11
:100F9000B8BFE41800F0DCF81C4A136833B963608A
:100FA00014602846BDE8384000F0D8B8A34208D9FC
:100FB000206821188B4201BF19685B6809182160FD
:100FC000EDE71A465B680BB1A342FAD911685018D5
:100FD000A0420BD120680144501883421160E0D137
:100FE00018685B68084410605360DAE702D90C2384
:100FF0002B60D6E7206821188B4201BF19685B6817
:101000000918216063605460CBE738BD44060020B6
:1010100070B50E4E0C463168054611B900F0D2F994
:1010200030602146284600F0CDF9431C0AD0C41C8C
:1010300024F00304A04207D0211A284600F0C2F988
:10104000013001D14FF0FF34204670BD480600202A
:101050002DE9F843CD1C25F0030508350C2D38BFCC
:101060000C25002D074601DBA94205D90C230026DB
:101070003B603046BDE8F883DFF8D08000F068F8C8
:10108000D8F800301C465CBB29463846FFF7C0FF45
:10109000431C044655D1D8F800402646002E45D1C1
:1010A000002C48D023683146384604EB030900F091
:1010B00089F981453FD1216838466D1A2946FFF7E5
:1010C000A7FF013037D023682B442360D8F80030C5
:1010D000002B38D05A68A2422BD100225A600FE070
:1010E0002268521B1FD40B2A17D96119A34225600D
:1010F00018BF5960636808BFC8F8001062514B60A0
:10110000384604F10B0600F029F826F00706231DE7
:10111000F21AAED09B1BA350ABE7A3426268DDD1AD
:10112000C8F80020ECE723466468ACE734467668EC
:10113000B4E71346CCE70C2338463B6000F00EF8CA
:1011400097E72560DCE75B60FFDE00BF4406002018
:101150000148FFF713BF00BF400600200148FFF71A
:101160000EBF00BF400600208A89F8B5054610076B
:101170000C4657D44B68002B04DC0B6C002B01DCB5
:101180000020F8BDE66A002EFAD0002312F4805247
:101190002F68216A2B6032D0606DA3895A0705D56C
:1011A0006368C01A636B0BB1236CC01A002302463C
:1011B000E66A2846216AB047431CA38906D12968FC
:1011C0001D292BD8284A0A41D60727D4002262605D
:1011D0002269D904226004D5421C01D12B6803B9CD
:1011E0006065616B2F600029CAD004F14403994205
:1011F00002D02846FFF7C4FE00206063C1E7012348
:101200002846B047411CC8D12B68002BC5D01D2BE8
:1012100001D0162B01D12F60B2E7A38943F0400320
:10122000A381AEE70F69002FAAD0930718BF002350
:101230000E6808BF4B69F61B0F608B60002E9FDDA8
:1012400033463A462846216AD4F828C0E0470028A9
:1012500006DCA3894FF0FF3043F04003A38190E701
:101260000744361AEAE700BFFEFFBFDF38B50B6957
:1012700005460C4613B90025284638BD18B1036A47
:101280000BB9FFF799FCB4F90C30002BF3D0626E68
:10129000D00704D4990502D4A06DFFF76FFE28464D
:1012A0002146FFF761FF636E0546DA07E4D4A389A0
:1012B0009B05E1D4A06DFFF762FEDDE770B50C463B
:1012C000B1F90E10154600291E4696B00CDAA38916
:1012D000002113F0800F0CBF4FF4806340230020E7
:1012E00031602B6016B070BD6A4600F049F80028E6
:1012F000EDDB019901F47041A1F5005359425941C8
:101300004FF48063EBE78B8973B59D0706460C4667
:1013100007D504F14703236023610123636102B011
:1013200070BD6A4601ABFFF7C9FF0099054630461C
:10133000FFF78EFE48B9B4F90C309A05EFD423F0CC
:10134000030343F00203A381E3E7A389206043F092
:101350008003A381009B20616361019B5BB13046E8
:10136000B4F90E1000F01EF828B1A38923F003038E
:1013700043F00103A381A3891D43A581CFE70000AA
:1013800038B50023064D0446084611462B60FFF78A
:10139000BDFA431C02D12B6803B1236038BD00BFE6
:1013A0003C06002038B50023054D044608462B6056
:1013B000FFF7BBFA431C02D12B6803B1236038BD91
:1013C0003C06002038B50023054D044608462B6036
:1013D000FFF7C2FA431C02D12B6803B1236038BD6A
:1013E0003C060020F8B500BFF8BC08BC9E4670471C
:0C13F000F8B500BFF8BC08BC9E46704772
:1013FC004572726F72212C206770696F2E632F47B4
:10140C0050494F5F50696E5F436F6E6669677572C6
:10141C00650000004572726F72212C206770696F35
:10142C002E632F4750494F5F7365745F6F75745F00
:10143C0070696E004572726F72212C206770696F33
:10144C002E632F4750494F5F746F6F676C655F6FEA
:08145C0075745F70696E0000F9
:041464005501000826
:041468003101000846
:10146C000000000003000000000500200000000048
:10147C000005002068050020D005002000000000B9
:10148C000000000000000000000000000000000050
:10149C000000000000000000000000000000000040
:1014AC000000000000000000000000000000000030
:0C14BC0000000000000000000C000020F8
:0400000508000A7174
:00000001FF
