:020000040800F2
:10000000005000207D0C0008CD0C0008CD0C00082D
:10001000CD0C0008CD0C0008CD0C0008000000003D
:10002000000000000000000000000000CD0C0008EF
:10003000CD0C000800000000CD0C0008CD0C00081D
:10004000CD0C0008CD0C0008CD0C0008CD0C00082C
:10005000CD0C0008CD0C0008CD0C0008CD0C00081C
:10006000CD0C0008CD0C0008CD0C0008CD0C00080C
:10007000CD0C0008CD0C0008CD0C0008CD0C0008FC
:10008000CD0C0008CD0C0008CD0C0008CD0C0008EC
:10009000CD0C0008CD0C0008CD0C0008CD0C0008DC
:1000A000CD0C0008CD0C0008CD0C0008CD0C0008CC
:1000B000CD0C0008CD0C0008CD0C0008CD0C0008BC
:1000C000CD0C0008CD0C0008CD0C0008CD0C0008AC
:1000D000CD0C0008CD0C0008CD0C0008CD0C00089C
:1000E000CD0C0008CD0C000800000000CD0C00086D
:1000F000CD0C0008CD0C0008CD0C0008CD0C00087C
:10010000CD0C0008CD0C0008CD0C0008CD0C00086B
:10011000CD0C0008CD0C0008CD0C0008CD0C00085B
:10012000CD0C0008CD0C0008CD0C0008CD0C00084B
:1001300010B5054C237833B9044B13B10448AFF321
:1001400000800123237010BD3C0C00200000000043
:100150001816000808B5034B1BB103490348AFF359
:10016000008008BD00000000400C002018160008A8
:10017000034613F8012B002AFBD1181A01387047E7
:1001800080B584B000AFB9607A603B600346FB7312
:10019000624B9A69FB7B614913438B61BB68072BF8
:1001A00058D8FB7B102B38D0102B4FDC042B02D0FF
:1001B000082B19D04AE05A4B1B68BA6892000F21ED
:1001C00001FA02F2D2431146554A0B401360544BD8
:1001D0001A6879683B681943BB689B0001FA03F30E
:1001E0004F4913430B6094E04E4B1B68BA68920072
:1001F0000F2101FA02F2D24311464A4A0B40136022
:10020000484B1A6879683B681943BB689B0001FA40
:1002100003F3444913430B607BE0434B1B68BA680C
:1002200092000F2101FA02F2D24311463E4A0B40DE
:1002300013603D4B1A6879683B681943BB689B00A3
:1002400001FA03F3384913430B6062E0374800F0CA
:1002500043FE5EE0FB7B102B3CD0102B55DC042BC7
:1002600002D0082B1BD050E02D4B5B68BA68083ACF
:1002700092000F2101FA02F2D2431146284A0B40A4
:100280005360274B5A6879683B681943BB68083B41
:100290009B0001FA03F3224913434B6039E0214BE1
:1002A0005B68BA68083A92000F2101FA02F2D24361
:1002B00011461C4A0B4053601A4B5A6879683B68D8
:1002C0001943BB68083B9B0001FA03F3154913432C
:1002D0004B601EE0144B5B68BA68083A92000F212D
:1002E00001FA02F2D24311460F4A0B4053600E4B03
:1002F0005A6879683B681943BB68083B9B0001FA60
:1003000003F3094913434B6003E0084800F0E4FDA0
:1003100000BF00BF1037BD4680BD00BF00100240C7
:1003200000080140000C0140001001403016000898
:1003300080B582B000AF03463960FB711346BB71D4
:10034000FB79102B32D0102B46DC042B02D0082B6B
:1003500016D041E0244BDB6801213A6801FA02F231
:10036000D2431146204A0B40D3601F4BDB68B9795A
:100370003A6801FA02F211461B4A0B43D3602FE0A0
:100380001A4BDB6801213A6801FA02F2D2431146A6
:10039000164A0B40D360154BDB68B9793A6801FA0D
:1003A00002F21146114A0B43D36019E0104BDB688F
:1003B00001213A6801FA02F2D24311460C4A0B407D
:1003C000D3600B4BDB68B9793A6801FA02F2114647
:1003D000074A0B43D36003E0064800F07DFD00BFF1
:1003E00000BF0837BD4680BD00080140000C014039
:1003F000001001405416000880B582B000AF0346DB
:100400003960FB71FB79102B1CD0102B25DC042BE1
:1004100002D0082B0BD020E0144BDB6801213A6896
:1004200001FA02F21146114A4B40D36019E0104B19
:10043000DB6801213A6801FA02F211460C4A4B408E
:10044000D3600EE00B4BDB6801213A6801FA02F23F
:100450001146084A4B40D36003E0074800F03CFDDA
:1004600000BF00BF0837BD4680BD00BF0008014087
:10047000000C0140001001407416000880B584B0E3
:1004800000AF00F049F800F05EFA00F089FA00F0E1
:1004900079FA00F09DFB00F03AF9042301220D21C6
:1004A0001020FFF76DFE00F04BF90023FB6007E022
:1004B000164AFB681344FF221A70FB680133FB6085
:1004C000FB68B3F5906FF3DB114A3B4607CA03C3E1
:1004D0001A803B460D4A0721032000F0F1F90B4832
:1004E00000F057F900F00DF94FF47A7000F0AEFB10
:1004F000084800F04EF90D211020FFF77DFF00F0B5
:1005000000F94FF4FA7000F0A1FBF4E7580C00205A
:10051000981600086007002080B400AF324B1B68BB
:10052000314A43F48033136000BF2F4B1B6803F440
:100530000033002BF9D02C4BDB692B4A43F080535E
:10054000D3612A4B1B68294A43F01003136000BF94
:10055000264B1B6803F02003002BF9D0234B1B68AC
:10056000224A43F0010313601F4B1F4A5B6853602C
:100570001D4B5B681C4A43F4806353601A4B5B68F5
:10058000194A43F400535360174B5B68164A43F40F
:1005900000235360144B5B68134A43F48033536069
:1005A000114B114A5B6853600F4B1B680E4A43F0B6
:1005B0008073136000BF0C4B1B6803F00073002BAB
:1005C000F9D0094B5B68084A43F00203536000BF4F
:1005D000054B5B6803F00803002BF9D000BF00BF98
:1005E000BD4680BC704700BF0010024000200240A2
:1005F00080B400AF064B1B7883F04003DAB2044BA3
:100600001A70034B1B781846BD4680BC704700BF6C
:10061000D810002080B582B000AF0346FB71FB1DEF
:100620000121184600F002FA00BF0837BD4680BD20
:1006300080B582B000AF0346FB71FFF7D9FF0346D8
:100640001A46FB791343DBB2FB71FB1D01211846EF
:1006500000F0ECF900BF0837BD4680BD80B483B020
:1006600000AF0346FB71FB79DB09DBB25AB2FB79C1
:100670005B115BB203F002035BB213435AB2FB7926
:10068000DB105BB203F004035BB213435AB2FB7995
:100690005B105BB203F008035BB213435AB2FB7901
:1006A000DB015BB213435AB2FB795B015BB203F02F
:1006B00040035BB213435AB2FB79DB005BB203F039
:1006C00020035BB213435AB2FB795B005BB203F0C9
:1006D00010035BB213435BB2FB71FB7918460C3716
:1006E000BD4680BC704780B500AF00F032F80020F6
:1006F000FFF79EFF0020FFF78DFF00F033F800BFEB
:1007000080BD80B500AFFFF7EEFF00BF80BD80B5B4
:1007100000AF0023012200210420FFF731FD002358
:10072000012201210420FFF72BFD002201210420DA
:10073000FFF7FEFD00F004F800F01DF800BF80BDDB
:1007400080B500AF012200210420FFF7F1FD00BFBA
:1007500080BD80B500AF012201210420FFF7E8FD34
:1007600000BF80BD80B500AF002201210420FFF74B
:10077000DFFD00BF80BD80B500AFFFF7EAFF20209E
:10078000FFF756FF0020FFF745FFFFF7EBFF00BF25
:1007900080BD80B584B000AF7860FFF7DAFF8020BD
:1007A000FFF746FF0023FB7327E0FB7B0133DBB23F
:1007B0001846FFF753FF03461846FFF72BFF0023A9
:1007C000BB6011E0FA7B13465B0013449B001A46A2
:1007D000BB6813441A467B6813441B781846FFF71E
:1007E00019FFBB680133BB60BB680B2BEADD00203F
:1007F000FFF710FFFB7B0133FB73FB7B5F2BD4D92F
:100800000020FFF707FFFFF7ADFF00BF1037BD4621
:1008100080BD000080B487B000AFBA607B60034643
:10082000FB730B46BB73BB7B7B613BE0BB7B013B3C
:100830009BB21A46520013445B019AB2BB7B7969A2
:10084000CB1A9BB2194649000B449B009BB2134440
:100850009AB2FB7B9BB213449BB2013B7B827B68C9
:10086000203B9BB2DB009AB27B6999B2BB7B9BB207
:10087000CB1A9BB213443B827B8ABA6813441B7821
:100880005AB23B8A0D4951F823305BB2DB435BB26D
:10089000134059B27B8ABA681344CAB21A707B6992
:1008A00001337B61BB7B07337A699A42BEDD00BFAF
:1008B00000BF1C37BD4680BC704700BF0000002051
:1008C00080B588B000AFBA607B600346FB730B460F
:1008D000BB730023FB770023BB6128E0BB697A6808
:1008E000D11807F115030122184600F0DDFBBB69A2
:1008F000DAB2FB7B1344DAB2FB7F19469B00CB1ABA
:100900009B00DBB21344FB75BA7BFB7F1344BB75C2
:10091000FB7D0B2B02D9FB7F0133FB777B7DB97D00
:10092000F87DBA68FFF776FFBB690133BB61786871
:10093000FFF71EFC0246BB699A42CFD800BF00BF3A
:100940002037BD4680BD80B500AF082301220721B6
:100950000420FFF715FC0823012205210420FFF7DE
:100960000FFC00BF80BD000080B400AF044B1B68CB
:10097000034A23F08003136000BFBD4680BC70476C
:100980000030014080B400AF044B1B68034A43F0C1
:100990004003136000BFBD4680BC7047003001407B
:1009A00080B500AF1F4B9B691E4A43F4805393618F
:1009B0001D4B1B681C4A23F0200313601A4B1B6855
:1009C000194A43F018031360174B1B68164A23F0AB
:1009D00002031360144B1B68134A23F001031360D6
:1009E000114B1B68104A23F400631360FFF7BCFF30
:1009F0000D4B1B680C4A43F0040313600A4B1B6841
:100A0000094A43F400731360074B1B68064A43F41A
:100A100080731360044B00225A60034B0022DA609B
:100A200000BF80BD001002400030014080B485B09E
:100A300000AF78600B46FB700023FB600FE000BF47
:100A4000124B9B6803F00203022BF9D1FB687A6812
:100A500013441A780D4BDA60FB680133FB60FB78B6
:100A6000FA689A42EBDB00BF084B9B6803F08003F7
:100A7000802BF9D0054BDB68FB72044B9B68FB7243
:100A800000BF1437BD4680BC704700BF0030014036
:100A900080B586B000AFF860B9607A6000237B61F2
:100AA0000AE0AFF300800146BB685A1CBA60CAB2C4
:100AB0001A707B6901337B617A697B689A42F0DB4B
:100AC0007B6818461837BD4680BD80B586B000AF3C
:100AD000F860B9607A6000237B6109E0BB685A1C4A
:100AE000BA601B781846AFF300807B6901337B61E5
:100AF0007A697B689A42F1DB7B6818461837BD46F5
:100B000080BD80B483B000AF78604FF0FF331846EB
:100B10000C37BD4680BC704780B483B000AF7860AE
:100B200039603B684FF400525A60002318460C3776
:100B3000BD4680BC704780B483B000AF78600123AD
:100B400018460C37BD4680BC704780B485B000AFF6
:100B5000F860B9607A60002318461437BD4680BC3F
:100B60007047000080B586B000AF7860144A154B1E
:100B7000D31A7B617B693B61134B1B68002B02D14D
:100B8000114B124A1A60104B1A687B6813443A6979
:100B90009A4207D200F0E2FA03460C221A604FF0A4
:100BA000FF3309E0084B1B68FB60074B1A687B6842
:100BB0001344054A1360FB6818461837BD4680BDCC
:100BC0000050002000040000DC1000203012002043
:100BD00080B400AF114BDB69104A43F00103D361CD
:100BE0004FF0804307229A624FF080434FF6FE7227
:100BF000DA624FF080431B684FF0804243F00103FC
:100C0000136000BF4FF080431B6903F00103002B0A
:100C1000F8D000BF00BFBD4680BC70470010024046
:100C200080B483B000AF0346FB804FF080430022C6
:100C30005A6200BF4FF080435A6AFB889A42F9D348
:100C400000BF00BF0C37BD4680BC704780B584B084
:100C500000AF0346FB800023FB8106E04FF47A706F
:100C6000FFF7DEFFFB890133FB81FA89FB889A429B
:100C7000F4D300BF00BF1037BD4680BD0D48854688
:100C8000AFF300800C480D490D4A002302E0D45810
:100C9000C4500433C4188C42F9D30A4A0A4C0023C6
:100CA00001E013600432A242FBD300F05DFAFFF7CB
:100CB000E5FBFEE700500020000000203C0C002077
:100CC000AC1600083C0C00202C120020FEE70000AF
:100CD000002310B50446C0E90033C0E90433836043
:100CE00081814366C2818361194608225C3000F02D
:100CF000D3F9054B24626362044BA362044BE362A5
:100D0000044B236310BD00BFE90E00080B0F000861
:100D1000430F0008670F0008024A0349034800F028
:100D200069B800BFE00B0020A1140008EC0B002004
:100D300041680C4B10B59942044601D000F0B0FB5D
:100D4000A168094B994202D0204600F0A9FBE16856
:100D5000064B994204D02046BDE8104000F0A0BBED
:100D600010BD00BFE010002048110020B01100208D
:100D700010B50B4B0B4C0C4A20461A600421002284
:100D8000FFF7A6FF04F1680001220921FFF7A0FF89
:100D900004F1D0000222BDE810401221FFF798BFF5
:100DA00018120020E0100020190D0008014800F082
:100DB000FFB900BF21120020014800F0FAB900BFBE
:100DC0002112002010B50446FFF7F0FF236A1BB183
:100DD000BDE81040FFF7F0BF044B2362044B1B68D3
:100DE000002BF5D1FFF7C4FFF2E700BF310D00087B
:100DF000181200202DE9F8430746884614460026BD
:100E0000D4E90195B9F1010905D52468002CF7D181
:100E10003046BDE8F883AB89012B07D9B5F90E3010
:100E2000013303D029463846C04706436835E9E711
:100E3000036A70B505460E4684680BB9FFF7C2FF1A
:100E4000636EDB0705D4A389980502D4A06D00F07A
:100E5000AFF9A389190713D523698BB1013EA368A4
:100E600016F8011F013BA360E9B9002B2EDA2246D8
:100E70000A21284600F07BF8013007D00A2507E058
:100E80002146284600F0B0F80028E7D04FF0FF35A3
:100E9000636EDA0705D4A3899B0502D4A06D00F028
:100EA00088F9284670BD002B04DAA2699A4206DC54
:100EB0000A2904D023685A1C22601970CFE7224601
:100EC000284600F054F80130C9D1DFE70A2523682D
:100ED0005A1C22601D70DBE7024B01461868FFF7C1
:100EE000A7BF00BF380C002010B50C46B1F90E109A
:100EF00000F010F90028ABBF636DA3891B1823F421
:100F00008053ACBF6365A38110BD2DE9F0411F463E
:100F10008B890546DB050C46164605D502230022C3
:100F2000B1F90E1000F0E4F8A389324623F480539F
:100F3000A38128463B46B4F90E10BDE8F04100F00D
:100F4000FBB810B50C46B1F90E1000F0D1F8431CF7
:100F5000A38915BF606523F4805343F48053A381B4
:100F600018BFA38110BDB1F90E1000F0B1B8F8B5EB
:100F70000E461446054618B1036A0BB9FFF722FF67
:100F8000A369A360A3891A0725D523691BB3236826
:100F90002269F6B2981A63693746834204DC214617
:100FA000284600F07DFAE0B9A368013BA3602368FE
:100FB0005A1C22601E706269431C9A4204D0A389A5
:100FC000DB0706D50A2E04D12146284600F068FA30
:100FD00038B93846F8BD2146284600F005F8002803
:100FE000D5D04FF0FF37F4E738B52A4B05461868DF
:100FF0000C4618B1036A0BB9FFF7E4FEA389B4F9F4
:101000000C20180722D4D90607D409232B6042F0FC
:1010100040034FF0FF30A38134E0580712D5616BD5
:1010200041B104F14403994202D0284600F0C2F8CD
:1010300000236363A38923F02403A3810023636057
:1010400023692360A38943F00803A38123694BB973
:10105000A38903F42073B3F5007F03D0214628460B
:1010600000F06BFAA089B4F90C2010F001030AD04B
:101070000023A36063695B42A361236943B910F055
:101080008000C4D138BD810758BF6369A360F4E70D
:101090000020F7E7380C002003460244934200D1B9
:1010A000704703F8011BF9E7034610B5013932B167
:1010B00011F8014F013A03F8014B002CF7D1002140
:1010C0001A44934200D110BD03F8011BF9E7000058
:1010D00038B50023054D044608462B60FFF711FD87
:1010E000431C02D12B6803B1236038BD1C120020C1
:1010F00038B50446084611460022054D2A601A46B6
:10110000FFF723FD431C02D12B6803B1236038BDD8
:101110001C12002038B50446084611460022054D31
:101120002A601A46FFF7B4FC431C02D12B6803B1B6
:10113000236038BD1C12002038B50446084611460D
:101140000022054D2A601A46FFF7BFFC431C02D15E
:101150002B6803B1236038BD1C120020014B1868B6
:10116000704700BF380C002070B500260C4D0D4CA8
:10117000641BA410A64209D100F04EFA00260A4DC5
:101180000A4C641BA410A64205D170BD55F8043B5F
:1011900098470136EEE755F8043B98470136F2E7E9
:1011A000A4160008A4160008A4160008A816000833
:1011B0007047704738B50546002940D051F8043CC7
:1011C0000C1F002BB8BFE41800F0DCF81C4A1368B1
:1011D00033B9636014602846BDE8384000F0D8B8E1
:1011E000A34208D9206821188B4201BF19685B68A7
:1011F00009182160EDE71A465B680BB1A342FAD9E2
:1012000011685018A0420BD1206801445018834245
:101210001160E0D118685B68084410605360DAE739
:1012200002D90C232B60D6E7206821188B4201BF1E
:1012300019685B680918216063605460CBE738BDAA
:101240002412002070B50E4E0C463168054611B9C7
:1012500000F0D2F930602146284600F0CDF9431C59
:101260000AD0C41C24F00304A04207D0211A284647
:1012700000F0C2F9013001D14FF0FF34204670BDBB
:10128000281200202DE9F843CD1C25F00305083570
:101290000C2D38BF0C25002D074601DBA94205D9CE
:1012A0000C2300263B603046BDE8F883DFF8D08091
:1012B00000F068F8D8F800301C465CBB2946384678
:1012C000FFF7C0FF431C044655D1D8F8004026461E
:1012D000002E45D1002C48D023683146384604EB17
:1012E000030900F089F981453FD1216838466D1A1C
:1012F0002946FFF7A7FF013037D023682B4423602E
:10130000D8F80030002B38D05A68A2422BD10022E6
:101310005A600FE02268521B1FD40B2A17D961199B
:10132000A342256018BF5960636808BFC8F8001061
:1013300062514B60384604F10B0600F029F826F0A4
:101340000706231DF21AAED09B1BA350ABE7A342A6
:101350006268DDD1C8F80020ECE723466468ACE79A
:1013600034467668B4E71346CCE70C2338463B6036
:1013700000F00EF897E72560DCE75B60FFDE00BF5A
:10138000241200200148FFF713BF00BF20120020E5
:101390000148FFF70EBF00BF201200208A89F8B570
:1013A000054610070C4657D44B68002B04DC0B6C29
:1013B000002B01DC0020F8BDE66A002EFAD00023E5
:1013C00012F480522F68216A2B6032D0606DA3899D
:1013D0005A0705D56368C01A636B0BB1236CC01A3A
:1013E00000230246E66A2846216AB047431CA389C7
:1013F00006D129681D292BD8284A0A41D60727D4A7
:10140000002262602269D904226004D5421C01D105
:101410002B6803B96065616B2F600029CAD004F1A5
:101420004403994202D02846FFF7C4FE00206063BF
:10143000C1E701232846B047411CC8D12B68002BC7
:10144000C5D01D2B01D0162B01D12F60B2E7A38987
:1014500043F04003A381AEE70F69002FAAD09307A2
:1014600018BF00230E6808BF4B69F61B0F608B6026
:10147000002E9FDD33463A462846216AD4F828C01C
:10148000E047002806DCA3894FF0FF3043F040031B
:10149000A38190E70744361AEAE700BFFEFFBFDFEB
:1014A00038B50B6905460C4613B90025284638BDEA
:1014B00018B1036A0BB9FFF785FCB4F90C30002BA7
:1014C000F3D0626ED00704D4990502D4A06DFFF763
:1014D0006FFE28462146FFF761FF636E0546DA0777
:1014E000E4D4A3899B05E1D4A06DFFF762FEDDE79C
:1014F00070B50C46B1F90E10154600291E4696B07F
:101500000CDAA389002113F0800F0CBF4FF4806325
:101510004023002031602B6016B070BD6A4600F099
:1015200049F80028EDDB019901F47041A1F5005361
:10153000594259414FF48063EBE78B8973B59D079E
:1015400006460C4607D504F14703236023610123B7
:10155000636102B070BD6A4601ABFFF7C9FF009935
:1015600005463046FFF78EFE48B9B4F90C309A05AF
:10157000EFD423F0030343F00203A381E3E7A3893D
:10158000206043F08003A381009B20616361019B85
:101590005BB13046B4F90E1000F01EF828B1A389F3
:1015A00023F0030343F00103A381A3891D43A58115
:1015B000CFE7000038B50023064D04460846114623
:1015C0002B60FFF7A9FA431C02D12B6803B12360FB
:1015D00038BD00BF1C12002038B50023054D04465D
:1015E00008462B60FFF7A7FA431C02D12B6803B112
:1015F000236038BD1C12002038B50023054D044679
:1016000008462B60FFF7AEFA431C02D12B6803B1EA
:10161000236038BD1C120020F8B500BFF8BC08BC20
:101620009E467047F8B500BFF8BC08BC9E467047A0
:101630004572726F72212C206770696F2E632F477D
:1016400050494F5F50696E5F436F6E666967757290
:10165000650000004572726F72212C206770696FFF
:101660002E632F4750494F5F7365745F6F75745FCA
:1016700070696E004572726F72212C206770696FFD
:101680002E632F4750494F5F746F6F676C655F6FB4
:1016900075745F70696E000048454C4C4F2050498E
:0416A0004600000000
:0416A40055010008E4
:0416A8003101000804
:1016AC00000000000000000000000000000000002E
:1016BC00000000000000000000000000000000001E
:1016CC00300000003000000030000000300000004E
:1016DC00300000000000000030000000000000009E
:1016EC006C0000006C0000006C00000000000000AA
:1016FC0000000000000000000000000000000000DE
:10170C006C0000006C000000FE0000006C0000008B
:10171C00FE0000006C0000006C00000000000000E7
:10172C00180000007E000000D80000007C000000C3
:10173C001A000000FC00000018000000000000006F
:10174C0060000000660000000C00000018000000A3
:10175C0030000000660000004600000000000000A1
:10176C0070000000D8000000D000000070000000E5
:10177C00DA000000CC0000007A000000000000003D
:10178C0038000000180000003000000000000000CD
:10179C00000000000000000000000000000000003D
:1017AC001800000030000000600000006000000025
:1017BC006000000030000000180000000000000075
:1017CC00600000003000000018000000180000004D
:1017DC001800000030000000600000000000000055
:1017EC0030000000B4000000780000003000000061
:1017FC0078000000B4000000300000000000000081
:10180C00000000003000000030000000FC00000070
:10181C00300000003000000000000000000000005C
:10182C0000000000000000000000000000000000AC
:10183C0000000000E000000060000000C00000009C
:10184C000000000000000000000000007C00000010
:10185C00000000000000000000000000000000007C
:10186C00000000000000000000000000000000006C
:10187C00000000007000000070000000000000007C
:10188C00000000000C0000001800000030000000F8
:10189C0060000000C000000080000000000000009C
:1018AC0038000000C6000000CE000000D60000008A
:1018BC00E6000000C6000000380000000000000038
:1018CC00300000007000000030000000300000000C
:1018DC003000000030000000780000000000000024
:1018EC0078000000CC0000000C0000001800000084
:1018FC003000000060000000FC0000000000000050
:10190C00FC0000001800000030000000180000006F
:10191C000C000000CC00000078000000000000006B
:10192C003800000078000000D8000000980000008B
:10193C00FC0000001800000018000000000000006F
:10194C00FC000000C0000000F80000000C000000CB
:10195C000C000000CC00000078000000000000002B
:10196C003800000060000000C0000000F80000001B
:10197C00CC000000CC00000078000000000000004B
:10198C00FC0000000C0000001800000030000000FB
:10199C00600000006000000060000000000000001B
:1019AC0078000000CC000000CC00000078000000A3
:1019BC00CC000000CC00000078000000000000000B
:1019CC0078000000CC000000CC0000007C0000007F
:1019DC000C00000018000000700000000000000067
:1019EC00000000003800000038000000000000007B
:1019FC00380000003800000000000000000000006B
:101A0C00000000003800000038000000000000005A
:101A1C00380000001800000030000000000000003A
:101A2C00180000003000000060000000C000000042
:101A3C0060000000300000001800000000000000F2
:101A4C0000000000000000007C000000000000000E
:101A5C007C000000000000000000000000000000FE
:101A6C006000000030000000180000000C000000B6
:101A7C0018000000300000006000000000000000B2
:101A8C0078000000CC0000000C00000018000000E2
:101A9C0030000000000000003000000000000000DA
:101AAC0038000000CC000000D6000000D60000007A
:101ABC00DC000000C0000000380000000000000046
:101ACC0078000000CC000000CC000000FC000000FE
:101ADC00CC000000CC000000CC0000000000000096
:101AEC00F8000000CC000000CC000000F800000062
:101AFC00CC000000CC000000F8000000000000004A
:101B0C0078000000CC000000C0000000C000000005
:101B1C00C0000000CC0000007800000000000000B5
:101B2C00F0000000D8000000CC000000CC00000049
:101B3C00CC000000D8000000F00000000000000005
:101B4C00FC000000C0000000C0000000F800000015
:101B5C00C0000000C0000000FC00000000000000FD
:101B6C00FC000000C0000000C0000000F8000000F5
:101B7C00C0000000C0000000C00000000000000019
:101B8C0078000000CC000000C0000000DC00000069
:101B9C00CC000000CC0000007C0000000000000025
:101BAC00CC000000CC000000CC000000FC000000C9
:101BBC00CC000000CC000000CC00000000000000B5
:101BCC007E00000018000000180000001800000043
:101BDC0018000000180000007E000000000000004B
:101BEC003C00000018000000180000001800000065
:101BFC0018000000D8000000700000000000000079
:101C0C00CC000000D8000000F0000000E000000054
:101C1C00F0000000D8000000CC0000000000000024
:101C2C00C0000000C0000000C0000000C0000000A8
:101C3C00C0000000C0000000FC000000000000001C
:101C4C00C6000000EE000000FE000000D600000000
:101C5C00C6000000C6000000C60000000000000026
:101C6C00CC000000CC000000EC000000FC000000E8
:101C7C00DC000000CC000000CC00000000000000E4
:101C8C0078000000CC000000CC000000CC0000006C
:101C9C00CC000000CC000000780000000000000028
:101CAC00F8000000CC000000CC000000F8000000A0
:101CBC00C0000000C0000000C000000000000000D8
:101CCC007C000000C6000000C6000000C60000003A
:101CDC00D6000000C80000007400000000000000E6
:101CEC00F8000000CC000000CC000000F800000060
:101CFC00F0000000D8000000CC0000000000000044
:101D0C007C000000C0000000C00000007800000053
:101D1C000C0000000C000000F800000000000000A7
:101D2C00FC0000003000000030000000300000001B
:101D3C003000000030000000300000000000000007
:101D4C00CC000000CC000000CC000000CC00000057
:101D5C00CC000000CC000000780000000000000067
:101D6C00CC000000CC000000CC000000CC00000037
:101D7C00CC000000780000003000000000000000E3
:101D8C00C6000000C6000000C6000000D60000001F
:101D9C00D6000000FE0000006C00000000000000F7
:101DAC00C6000000C60000006C00000038000000F7
:101DBC006C000000C6000000C6000000000000001F
:101DCC00CC000000CC000000CC000000780000002B
:101DDC003000000030000000300000000000000067
:101DEC00FC0000000C000000180000003000000097
:101DFC0060000000C0000000FC00000000000000BB
:101E0C00FFFFFFFFFFFFFFFFFFFFFFFFFFFFFFFFD6
:101E1C00FFFFFFFFFFFFFFFFFFFFFFFFFFFFFFFFC6
:101E2C00FFFFFFFFFFFFFFFFFFFFFFFFFFFFFFFFB6
:101E3C00FFFFFFFFFFFFFFFFFFFFFFFFFFFFFFFFA6
:101E4C00FFFFFFFFFFFFFFFFFFFFFFFFFFFFFFFF96
:101E5C00FFFFFFFFFFFFFFFFFFFFFFFFFFFFFFFF86
:101E6C00FFFFFFFFFFFFFFFFFFFFFFFFFFFFFFFF76
:101E7C00FFFFFFFFFFFFFFFFFFFFFFFFFFFFFFFF66
:101E8C00FFFFFFFFFFFFFFFFFFFFFFFFFFFFFFFF56
:101E9C00FFFFFFFFFFFFFFFFFFFFFFFFFFFFFFFF46
:101EAC00FFFFFFFFFFFFFFFFFFFFFFFFFFFFFFFF36
:101EBC00FFFFFFFFFFFFFFFFFFFFFFFFFFFFFFFF26
:101ECC00FFFFFFFFFFFFFFFFFFFFFFFFFFFFFFFF16
:101EDC00FFFFFFFFFFFFFFFFFFFFFFFFFFFFFFFF06
:101EEC00FFFFFFFFFFFFFFFFFFFFFFFFFFFFFFFFF6
:101EFC00FFFFFFFFFFFFFFFFFFFFFFFFFFFFFFFFE6
:101F0C00FFFFFFFFFFFFFFFFFFFFFFFFFFFFFFFFD5
:101F1C00FFFFFFFFFFFFC3FFFFFFFFFFFFFFFFFF01
:101F2C00FFFE7DFFFFFFFFFFFFCCFFFFFFF9FDFF73
:101F3C00FFFFFFFFFFDF3FFFFFFBFDFFFFFFFFFF8B
:101F4C00FFDFDFFFFFFDFDFFFFFFFFFFFFDFEFFF09
:101F5C00FFFDFDFFFFFFFFFFFFDFF7FFFFEFFBFFC5
:101F6C00FFFFFFFFFFDFFBFFFF9FFBFFFFFF7FFF7D
:101F7C00FFDFFDFFFFBFFBFFFFFF0FFFFFDFFDFFDD
:101F8C00FFBFFBFFFFF873FFFFDFFEFFFFBFF3FF99
:101F9C00FE1FFCFFFFDFFEFFFFBFF3FFE3FFFFE3CE
:101FAC00FFCFFEFFFFBFF3FFC3FFFFE07F8FFEFFFE
:101FBC00FFBFF5FE73FFFFCFBFAFFEFFFFBFF6FD08
:101FCC00FFFFFFFFEFAFFEFFFFDFF6FBFFFFFFFFA3
:101FDC00F7AFFDFFFFDFF777FFF807FFFF6FFDFFA0
:101FEC00FFEFF7AFFFFFE7FC7B6FFBFFFFF7F38E15
:101FFC0017FC1FF61CEFFBFFFFF7F3DC3BE003EED7
:10200C000CEFF7FFFFFFFBD8318000C00CCE3FFF79
:10201C00FFFEFD98018000C00EDEFFFFFFFF3C9825
:10202C00000000400E9F7FFFFFFFC61C018000C018
:10203C001E20FFFFFFFFF01F03C001F07C07FFFF16
:10204C00FFFFFE1FFFE003FFFC3FFFFFFFFFFFCC86
:10205C00FFFC1FFFC9FFFFFFFFFFFFF400000000A4
:10206C0013FFFFFFFFFFFFF9FFFFFFFFCFFFFFFF96
:10207C00FFFFFFFF07FFFFF07FFFFFFFFFFFFFFFEB
:10208C00E4FFFFD9FFFFFFFFFFFFFFFF9E7FFF9ED7
:10209C00FFFFFFFFFFFFFFFF7F7CFF3FBFFFFFFF47
:1020AC00FFFFFFFEE01D7C07DFFFFFFFFFFFFFFDD3
:1020BC001FE063FCEFFFFFFFFFFFFFFBFFF94FFF8C
:1020CC006FFFFFFFFFFFFFFBFFFC9FFFF7FFFFFF13
:1020DC00FFFFFFFBF7FEBFFFF7FFFFFFFFFFFFE078
:1020EC0003FE3FF001FFFFFFFFFFFFFFF9F5DFEFFE
:1020FC00FFFFFFFFFFFFFFFFFC0FE0DFFFFFFFFF16
:10210C00FFFFFFFFFFFFFFFFFFFFFFFFFFFFFFFFD3
:10211C00FFFFFFFFFFFFFFFFFFFFFFFFFFFFFFFFC3
:10212C00FFFFFFFFFFFFFFFFFFFFFFFFFFFFFFFFB3
:10213C00FFFFFFFFFFFFFFFFFFFFFFFFFFFFFFFFA3
:10214C00FFFFFFFFFFFFFFFFFFFFFFFFFFFFFFFF93
:10215C00FFFFFFFFFFFFFFFFFFFFFFFFFFFFFFFF83
:10216C00FFFFFFFFFFFFFFFFFFFFFFFFFFFFFFFF73
:10217C00FFFFFFFFFFFFFFFFFFFFFFFFFFFFFFFF63
:10218C00FFFFFFFFFFFFFFFFFFFFFFFFFFFFFFFF53
:10219C00FFFFFFFFFFFFFFFFFFFFFFFFFFFFFFFF43
:1021AC00FFFFFFFFFFFFFFFFFFFFFFFFFFFFFFFF33
:1021BC00FFFFFFFFFFFFFFFFFFFFFFFFFFFFFFFF23
:1021CC00FFFFFFFFFFFFFFFFFFFFFFFFFFFFFFFF13
:1021DC00FFFFFFFFFFFFFFFFFFFFFFFFFFFFFFFF03
:1021EC00FFFFFFFFFFFFFFFFFFFFFFFFFFFFFFFFF3
:1021FC00FFFFFFFFFFFFFFFFFFFFFFFFFFFFFFFFE3
:10220C00FFFFFFFFFFFFFFFFFFFFFFFFFFFFFFFFD2
:10221C00FFFFFFFFFFFFFFFFFFFFFFFFFFFFFFFFC2
:10222C00FFFFFFFFFFFFFFFFFFFFFFFFFFFFFFFFB2
:10223C00FFFFFFFFFFFFFFFFFFFFFFFFFFFFFFFFA2
:10224C00FFFFFFFFFFFFFFFFFFFFFFFFFFFFFFFF92
:10225C00FFFFFFFFFFFFFFFFFFFFFFFFFFFFFFFF82
:10226C00FFFFFFFFFFFFFFFFFFFFFFFFFFFFFFFF72
:10227C00FFFFFFFFFFFFFFFFFFFFFFFFFFFFFFFF62
:10228C000000000003000000E0100020000000002F
:10229C00E010002048110020B011002000000000C8
:1022AC000000000000000000000000000000000022
:1022BC000000000000000000000000000000000012
:1022CC000000000000000000000000000000000002
:0C22DC000000000000000000EC0B0020DF
:0400000508000C7D66
:00000001FF
